{
  "contractName": "Policy",
  "abi": [
    {
      "inputs": [],
      "stateMutability": "nonpayable",
      "type": "constructor"
    },
    {
      "stateMutability": "payable",
      "type": "fallback",
      "payable": true
    },
    {
      "inputs": [
        {
          "internalType": "uint256",
          "name": "",
          "type": "uint256"
        }
      ],
      "name": "cropTypes",
      "outputs": [
        {
          "internalType": "string",
          "name": "name",
          "type": "string"
        },
        {
          "internalType": "uint256",
          "name": "premiumPerAcre",
          "type": "uint256"
        },
        {
          "internalType": "uint256",
          "name": "duration",
          "type": "uint256"
        },
        {
          "internalType": "uint256",
          "name": "coveragePerAcre",
          "type": "uint256"
        }
      ],
      "stateMutability": "view",
      "type": "function",
      "constant": true
    },
    {
      "inputs": [
        {
          "internalType": "uint256",
          "name": "",
          "type": "uint256"
        }
      ],
      "name": "policies",
      "outputs": [
        {
          "internalType": "uint256",
          "name": "policyId",
          "type": "uint256"
        },
        {
          "internalType": "address",
          "name": "user",
          "type": "address"
        },
        {
          "internalType": "uint256",
          "name": "premium",
          "type": "uint256"
        },
        {
          "internalType": "uint256",
          "name": "area",
          "type": "uint256"
        },
        {
          "internalType": "uint256",
          "name": "startTime",
          "type": "uint256"
        },
        {
          "internalType": "uint256",
          "name": "endTime",
          "type": "uint256"
        },
        {
          "internalType": "string",
          "name": "location",
          "type": "string"
        },
        {
          "internalType": "uint256",
          "name": "coverageAmount",
          "type": "uint256"
        },
        {
          "internalType": "bool",
          "name": "forFlood",
          "type": "bool"
        },
        {
          "internalType": "uint8",
          "name": "cropId",
          "type": "uint8"
        },
        {
          "internalType": "enum Policy.policyState",
          "name": "state",
          "type": "uint8"
        }
      ],
      "stateMutability": "view",
      "type": "function",
      "constant": true
    },
    {
      "inputs": [],
      "name": "result",
      "outputs": [
        {
          "internalType": "uint256",
          "name": "",
          "type": "uint256"
        }
      ],
      "stateMutability": "view",
      "type": "function",
      "constant": true
    },
    {
      "inputs": [],
      "name": "resultReceived",
      "outputs": [
        {
          "internalType": "bool",
          "name": "",
          "type": "bool"
        }
      ],
      "stateMutability": "view",
      "type": "function",
      "constant": true
    },
    {
      "inputs": [
        {
          "internalType": "address",
          "name": "",
          "type": "address"
        },
        {
          "internalType": "uint256",
          "name": "",
          "type": "uint256"
        }
      ],
      "name": "userPolicies",
      "outputs": [
        {
          "internalType": "uint256",
          "name": "",
          "type": "uint256"
        }
      ],
      "stateMutability": "view",
      "type": "function",
      "constant": true
    },
    {
      "stateMutability": "payable",
      "type": "receive",
      "payable": true
    },
    {
      "inputs": [],
      "name": "balanceOf",
      "outputs": [
        {
          "internalType": "uint256",
          "name": "",
          "type": "uint256"
        }
      ],
      "stateMutability": "view",
      "type": "function",
      "constant": true
    },
    {
      "inputs": [
        {
          "internalType": "uint256",
          "name": "area",
          "type": "uint256"
        },
        {
          "internalType": "string",
          "name": "location",
          "type": "string"
        },
        {
          "internalType": "bool",
          "name": "forFlood",
          "type": "bool"
        },
        {
          "internalType": "uint8",
          "name": "cropId",
          "type": "uint8"
        }
      ],
      "name": "newPolicy",
      "outputs": [],
      "stateMutability": "payable",
      "type": "function",
      "payable": true
    },
    {
      "inputs": [
        {
          "internalType": "uint256",
          "name": "policyId",
          "type": "uint256"
        }
      ],
      "name": "coverPolicy",
      "outputs": [],
      "stateMutability": "payable",
      "type": "function",
      "payable": true
    },
    {
      "inputs": [],
      "name": "viewAllPolicies",
      "outputs": [
        {
          "components": [
            {
              "internalType": "uint256",
              "name": "policyId",
              "type": "uint256"
            },
            {
              "internalType": "address",
              "name": "user",
              "type": "address"
            },
            {
              "internalType": "uint256",
              "name": "premium",
              "type": "uint256"
            },
            {
              "internalType": "uint256",
              "name": "area",
              "type": "uint256"
            },
            {
              "internalType": "uint256",
              "name": "startTime",
              "type": "uint256"
            },
            {
              "internalType": "uint256",
              "name": "endTime",
              "type": "uint256"
            },
            {
              "internalType": "string",
              "name": "location",
              "type": "string"
            },
            {
              "internalType": "uint256",
              "name": "coverageAmount",
              "type": "uint256"
            },
            {
              "internalType": "bool",
              "name": "forFlood",
              "type": "bool"
            },
            {
              "internalType": "uint8",
              "name": "cropId",
              "type": "uint8"
            },
            {
              "internalType": "enum Policy.policyState",
              "name": "state",
              "type": "uint8"
            }
          ],
          "internalType": "struct Policy.policy[]",
          "name": "",
          "type": "tuple[]"
        }
      ],
      "stateMutability": "view",
      "type": "function",
      "constant": true
    },
    {
      "inputs": [
        {
          "internalType": "address",
          "name": "user",
          "type": "address"
        }
      ],
      "name": "viewMyPolicies",
      "outputs": [
        {
          "components": [
            {
              "internalType": "uint256",
              "name": "policyId",
              "type": "uint256"
            },
            {
              "internalType": "address",
              "name": "user",
              "type": "address"
            },
            {
              "internalType": "uint256",
              "name": "premium",
              "type": "uint256"
            },
            {
              "internalType": "uint256",
              "name": "area",
              "type": "uint256"
            },
            {
              "internalType": "uint256",
              "name": "startTime",
              "type": "uint256"
            },
            {
              "internalType": "uint256",
              "name": "endTime",
              "type": "uint256"
            },
            {
              "internalType": "string",
              "name": "location",
              "type": "string"
            },
            {
              "internalType": "uint256",
              "name": "coverageAmount",
              "type": "uint256"
            },
            {
              "internalType": "bool",
              "name": "forFlood",
              "type": "bool"
            },
            {
              "internalType": "uint8",
              "name": "cropId",
              "type": "uint8"
            },
            {
              "internalType": "enum Policy.policyState",
              "name": "state",
              "type": "uint8"
            }
          ],
          "internalType": "struct Policy.policy[]",
          "name": "",
          "type": "tuple[]"
        }
      ],
      "stateMutability": "view",
      "type": "function",
      "constant": true
    },
    {
      "inputs": [
        {
          "internalType": "uint256",
          "name": "policyId",
          "type": "uint256"
        }
      ],
      "name": "claimPolicy",
      "outputs": [],
      "stateMutability": "nonpayable",
      "type": "function"
    }
  ],
  "bytecode": "0x60806040526000600e553480156200001657600080fd5b506200006560006040518060400160405280600481526020017f7261626900000000000000000000000000000000000000000000000000000000815250600160066028620000b960201b60201c565b620000b360016040518060400160405280600681526020017f6b6861726966000000000000000000000000000000000000000000000000000081525060026004603c620000b960201b60201c565b6200027e565b600060405180608001604052808681526020018581526020018481526020018381525090508060058760ff16600281106200011d577f4e487b7100000000000000000000000000000000000000000000000000000000600052603260045260246000fd5b6004020160008201518160000190805190602001906200013f92919062000169565b50602082015181600101556040820151816002015560608201518160030155905050505050505050565b828054620001779062000219565b90600052602060002090601f0160209004810192826200019b5760008555620001e7565b82601f10620001b657805160ff1916838001178555620001e7565b82800160010185558215620001e7579182015b82811115620001e6578251825591602001919060010190620001c9565b5b509050620001f69190620001fa565b5090565b5b8082111562000215576000816000905550600101620001fb565b5090565b600060028204905060018216806200023257607f821691505b602082108114156200024957620002486200024f565b5b50919050565b7f4e487b7100000000000000000000000000000000000000000000000000000000600052602260045260246000fd5b612878806200028e6000396000f3fe6080604052600436106100a05760003560e01c80635a8f29ed116100645780635a8f29ed1461019357806365372147146101d3578063722713f7146101fe5780637fd7fe5714610229578063c160693d14610245578063d3e8948314610270576100a7565b806321d5e176146100a95780632aea118d146100c55780633d36adc5146100ee578063481397c31461012b5780634cd38cc214610168576100a7565b366100a757005b005b6100c360048036038101906100be9190611c3f565b6102b7565b005b3480156100d157600080fd5b506100ec60048036038101906100e79190611c3f565b610644565b005b3480156100fa57600080fd5b5061011560048036038101906101109190611c03565b610ba9565b6040516101229190612284565b60405180910390f35b34801561013757600080fd5b50610152600480360381019061014d9190611bda565b610bda565b60405161015f91906120db565b60405180910390f35b34801561017457600080fd5b5061017d610fc6565b60405161018a91906120fd565b60405180910390f35b34801561019f57600080fd5b506101ba60048036038101906101b59190611c3f565b610fd9565b6040516101ca9493929190612118565b60405180910390f35b3480156101df57600080fd5b506101e8611097565b6040516101f59190612284565b60405180910390f35b34801561020a57600080fd5b5061021361109d565b6040516102209190612284565b60405180910390f35b610243600480360381019061023e9190611c68565b6110a5565b005b34801561025157600080fd5b5061025a611670565b60405161026791906120db565b60405180910390f35b34801561027c57600080fd5b5061029760048036038101906102929190611c3f565b6118b3565b6040516102ae9b9a9998979695949392919061229f565b60405180910390f35b6000600d82815481106102f3577f4e487b7100000000000000000000000000000000000000000000000000000000600052603260045260246000fd5b906000526020600020906009020190503373ffffffffffffffffffffffffffffffffffffffff16600d8381548110610354577f4e487b7100000000000000000000000000000000000000000000000000000000600052603260045260246000fd5b906000526020600020906009020160010160009054906101000a900473ffffffffffffffffffffffffffffffffffffffff1673ffffffffffffffffffffffffffffffffffffffff1614156103dd576040517f08c379a00000000000000000000000000000000000000000000000000000000081526004016103d490612184565b60405180910390fd5b60006003811115610417577f4e487b7100000000000000000000000000000000000000000000000000000000600052602160045260246000fd5b600d8381548110610451577f4e487b7100000000000000000000000000000000000000000000000000000000600052603260045260246000fd5b906000526020600020906009020160080160029054906101000a900460ff1660038111156104a8577f4e487b7100000000000000000000000000000000000000000000000000000000600052602160045260246000fd5b146104e8576040517f08c379a00000000000000000000000000000000000000000000000000000000081526004016104df90612164565b60405180910390fd5b66038d7ea4c6800081600701546104ff9190612418565b3414610540576040517f08c379a000000000000000000000000000000000000000000000000000000000815260040161053790612244565b60405180910390fd5b60003073ffffffffffffffffffffffffffffffffffffffff1634604051610566906120c6565b60006040518083038185875af1925050503d80600081146105a3576040519150601f19603f3d011682016040523d82523d6000602084013e6105a8565b606091505b50509050806105ec576040517f08c379a00000000000000000000000000000000000000000000000000000000081526004016105e390612264565b60405180910390fd5b60018260080160026101000a81548160ff0219169083600381111561063a577f4e487b7100000000000000000000000000000000000000000000000000000000600052602160045260246000fd5b0217905550505050565b600d80549050811061068b576040517f08c379a0000000000000000000000000000000000000000000000000000000008152600401610682906121c4565b60405180910390fd5b600d81815481106106c5577f4e487b7100000000000000000000000000000000000000000000000000000000600052603260045260246000fd5b906000526020600020906009020160010160009054906101000a900473ffffffffffffffffffffffffffffffffffffffff1673ffffffffffffffffffffffffffffffffffffffff163373ffffffffffffffffffffffffffffffffffffffff1614610764576040517f08c379a000000000000000000000000000000000000000000000000000000000815260040161075b906121a4565b60405180910390fd5b6001600381111561079e577f4e487b7100000000000000000000000000000000000000000000000000000000600052602160045260246000fd5b600d82815481106107d8577f4e487b7100000000000000000000000000000000000000000000000000000000600052603260045260246000fd5b906000526020600020906009020160080160029054906101000a900460ff16600381111561082f577f4e487b7100000000000000000000000000000000000000000000000000000000600052602160045260246000fd5b1461086f576040517f08c379a0000000000000000000000000000000000000000000000000000000008152600401610866906121e4565b60405180910390fd5b600d81815481106108a9577f4e487b7100000000000000000000000000000000000000000000000000000000600052603260045260246000fd5b906000526020600020906009020160050154421115610997576003600d82815481106108fe577f4e487b7100000000000000000000000000000000000000000000000000000000600052603260045260246000fd5b906000526020600020906009020160080160026101000a81548160ff02191690836003811115610957577f4e487b7100000000000000000000000000000000000000000000000000000000600052602160045260246000fd5b02179055506040517f08c379a000000000000000000000000000000000000000000000000000000000815260040161098e90612224565b60405180910390fd5b6000600d82815481106109d3577f4e487b7100000000000000000000000000000000000000000000000000000000600052603260045260246000fd5b906000526020600020906009020160010160009054906101000a900473ffffffffffffffffffffffffffffffffffffffff1673ffffffffffffffffffffffffffffffffffffffff1666038d7ea4c68000600d8481548110610a5d577f4e487b7100000000000000000000000000000000000000000000000000000000600052603260045260246000fd5b906000526020600020906009020160070154610a799190612418565b604051610a85906120c6565b60006040518083038185875af1925050503d8060008114610ac2576040519150601f19603f3d011682016040523d82523d6000602084013e610ac7565b606091505b5050905080610b0b576040517f08c379a0000000000000000000000000000000000000000000000000000000008152600401610b0290612264565b60405180910390fd5b6002600d8381548110610b47577f4e487b7100000000000000000000000000000000000000000000000000000000600052603260045260246000fd5b906000526020600020906009020160080160026101000a81548160ff02191690836003811115610ba0577f4e487b7100000000000000000000000000000000000000000000000000000000600052602160045260246000fd5b02179055505050565b600f6020528160005260406000208181548110610bc557600080fd5b90600052602060002001600091509150505481565b60606000600f60008473ffffffffffffffffffffffffffffffffffffffff1673ffffffffffffffffffffffffffffffffffffffff16815260200190815260200160002080549050905060008167ffffffffffffffff811115610c65577f4e487b7100000000000000000000000000000000000000000000000000000000600052604160045260246000fd5b604051908082528060200260200182016040528015610c9e57816020015b610c8b6119ec565b815260200190600190039081610c835790505b50905060005b82811015610fbb57600d600f60008773ffffffffffffffffffffffffffffffffffffffff1673ffffffffffffffffffffffffffffffffffffffff1681526020019081526020016000208281548110610d25577f4e487b7100000000000000000000000000000000000000000000000000000000600052603260045260246000fd5b906000526020600020015481548110610d67577f4e487b7100000000000000000000000000000000000000000000000000000000600052603260045260246000fd5b906000526020600020906009020160405180610160016040529081600082015481526020016001820160009054906101000a900473ffffffffffffffffffffffffffffffffffffffff1673ffffffffffffffffffffffffffffffffffffffff1673ffffffffffffffffffffffffffffffffffffffff16815260200160028201548152602001600382015481526020016004820154815260200160058201548152602001600682018054610e199061251f565b80601f0160208091040260200160405190810160405280929190818152602001828054610e459061251f565b8015610e925780601f10610e6757610100808354040283529160200191610e92565b820191906000526020600020905b815481529060010190602001808311610e7557829003601f168201915b50505050508152602001600782015481526020016008820160009054906101000a900460ff161515151581526020016008820160019054906101000a900460ff1660ff1660ff1681526020016008820160029054906101000a900460ff166003811115610f28577f4e487b7100000000000000000000000000000000000000000000000000000000600052602160045260246000fd5b6003811115610f60577f4e487b7100000000000000000000000000000000000000000000000000000000600052602160045260246000fd5b81525050828281518110610f9d577f4e487b7100000000000000000000000000000000000000000000000000000000600052603260045260246000fd5b60200260200101819052508080610fb390612551565b915050610ca4565b508092505050919050565b600360009054906101000a900460ff1681565b60058160028110610fe957600080fd5b600402016000915090508060000180546110029061251f565b80601f016020809104026020016040519081016040528092919081815260200182805461102e9061251f565b801561107b5780601f106110505761010080835404028352916020019161107b565b820191906000526020600020905b81548152906001019060200180831161105e57829003601f168201915b5050505050908060010154908060020154908060030154905084565b60045481565b600047905090565b66038d7ea4c680008560058360ff16600281106110eb577f4e487b7100000000000000000000000000000000000000000000000000000000600052603260045260246000fd5b60040201600101546110fd9190612418565b6111079190612418565b3414611148576040517f08c379a000000000000000000000000000000000000000000000000000000000815260040161113f90612204565b60405180910390fd5b60003073ffffffffffffffffffffffffffffffffffffffff163460405161116e906120c6565b60006040518083038185875af1925050503d80600081146111ab576040519150601f19603f3d011682016040523d82523d6000602084013e6111b0565b606091505b50509050806111f4576040517f08c379a00000000000000000000000000000000000000000000000000000000081526004016111eb90612264565b60405180910390fd5b6000600e549050600f60003373ffffffffffffffffffffffffffffffffffffffff1673ffffffffffffffffffffffffffffffffffffffff1681526020019081526020016000208190806001815401808255809150506001900390600052602060002001600090919091909150556112696119ec565b600e600081548092919061127c90612551565b9190505581600001818152505033816020019073ffffffffffffffffffffffffffffffffffffffff16908173ffffffffffffffffffffffffffffffffffffffff16815250508760058560ff16600281106112ff577f4e487b7100000000000000000000000000000000000000000000000000000000600052603260045260246000fd5b60040201600101546113119190612418565b8160400181815250508781606001818152505042816080018181525050603c806018601e60058860ff1660028110611372577f4e487b7100000000000000000000000000000000000000000000000000000000600052603260045260246000fd5b60040201600201546113849190612418565b61138e9190612418565b6113989190612418565b6113a29190612418565b426113ad91906123c2565b8160a001818152505086868080601f016020809104026020016040519081016040528093929190818152602001838380828437600081840152601f19601f820116905080830192505050505050508160c001819052508760058560ff1660028110611441577f4e487b7100000000000000000000000000000000000000000000000000000000600052603260045260246000fd5b60040201600301546114539190612418565b8160e001818152505084816101000190151590811515815250508381610120019060ff16908160ff1681525050600081610140019060038111156114c0577f4e487b7100000000000000000000000000000000000000000000000000000000600052602160045260246000fd5b908160038111156114fa577f4e487b7100000000000000000000000000000000000000000000000000000000600052602160045260246000fd5b81525050600d8190806001815401808255809150506001900390600052602060002090600902016000909190919091506000820151816000015560208201518160010160006101000a81548173ffffffffffffffffffffffffffffffffffffffff021916908373ffffffffffffffffffffffffffffffffffffffff16021790555060408201518160020155606082015181600301556080820151816004015560a0820151816005015560c08201518160060190805190602001906115bf929190611a99565b5060e082015181600701556101008201518160080160006101000a81548160ff0219169083151502179055506101208201518160080160016101000a81548160ff021916908360ff1602179055506101408201518160080160026101000a81548160ff0219169083600381111561165f577f4e487b7100000000000000000000000000000000000000000000000000000000600052602160045260246000fd5b021790555050505050505050505050565b6060600d805480602002602001604051908101604052809291908181526020016000905b828210156118aa578382906000526020600020906009020160405180610160016040529081600082015481526020016001820160009054906101000a900473ffffffffffffffffffffffffffffffffffffffff1673ffffffffffffffffffffffffffffffffffffffff1673ffffffffffffffffffffffffffffffffffffffff168152602001600282015481526020016003820154815260200160048201548152602001600582015481526020016006820180546117509061251f565b80601f016020809104026020016040519081016040528092919081815260200182805461177c9061251f565b80156117c95780601f1061179e576101008083540402835291602001916117c9565b820191906000526020600020905b8154815290600101906020018083116117ac57829003601f168201915b50505050508152602001600782015481526020016008820160009054906101000a900460ff161515151581526020016008820160019054906101000a900460ff1660ff1660ff1681526020016008820160029054906101000a900460ff16600381111561185f577f4e487b7100000000000000000000000000000000000000000000000000000000600052602160045260246000fd5b6003811115611897577f4e487b7100000000000000000000000000000000000000000000000000000000600052602160045260246000fd5b8152505081526020019060010190611694565b50505050905090565b600d81815481106118c357600080fd5b90600052602060002090600902016000915090508060000154908060010160009054906101000a900473ffffffffffffffffffffffffffffffffffffffff169080600201549080600301549080600401549080600501549080600601805461192a9061251f565b80601f01602080910402602001604051908101604052809291908181526020018280546119569061251f565b80156119a35780601f10611978576101008083540402835291602001916119a3565b820191906000526020600020905b81548152906001019060200180831161198657829003601f168201915b5050505050908060070154908060080160009054906101000a900460ff16908060080160019054906101000a900460ff16908060080160029054906101000a900460ff1690508b565b60405180610160016040528060008152602001600073ffffffffffffffffffffffffffffffffffffffff168152602001600081526020016000815260200160008152602001600081526020016060815260200160008152602001600015158152602001600060ff16815260200160006003811115611a93577f4e487b7100000000000000000000000000000000000000000000000000000000600052602160045260246000fd5b81525090565b828054611aa59061251f565b90600052602060002090601f016020900481019282611ac75760008555611b0e565b82601f10611ae057805160ff1916838001178555611b0e565b82800160010185558215611b0e579182015b82811115611b0d578251825591602001919060010190611af2565b5b509050611b1b9190611b1f565b5090565b5b80821115611b38576000816000905550600101611b20565b5090565b600081359050611b4b816127e6565b92915050565b600081359050611b60816127fd565b92915050565b60008083601f840112611b7857600080fd5b8235905067ffffffffffffffff811115611b9157600080fd5b602083019150836001820283011115611ba957600080fd5b9250929050565b600081359050611bbf81612814565b92915050565b600081359050611bd48161282b565b92915050565b600060208284031215611bec57600080fd5b6000611bfa84828501611b3c565b91505092915050565b60008060408385031215611c1657600080fd5b6000611c2485828601611b3c565b9250506020611c3585828601611bb0565b9150509250929050565b600060208284031215611c5157600080fd5b6000611c5f84828501611bb0565b91505092915050565b600080600080600060808688031215611c8057600080fd5b6000611c8e88828901611bb0565b955050602086013567ffffffffffffffff811115611cab57600080fd5b611cb788828901611b66565b94509450506040611cca88828901611b51565b9250506060611cdb88828901611bc5565b9150509295509295909350565b6000611cf48383611f9b565b905092915050565b611d0581612472565b82525050565b611d1481612472565b82525050565b6000611d2582612361565b611d2f8185612384565b935083602082028501611d4185612351565b8060005b85811015611d7d5784840389528151611d5e8582611ce8565b9450611d6983612377565b925060208a01995050600181019050611d45565b50829750879550505050505092915050565b611d9881612484565b82525050565b611da781612484565b82525050565b611db6816124da565b82525050565b611dc5816124da565b82525050565b6000611dd68261236c565b611de081856123a0565b9350611df08185602086016124ec565b611df981612627565b840191505092915050565b6000611e0f8261236c565b611e1981856123b1565b9350611e298185602086016124ec565b611e3281612627565b840191505092915050565b6000611e4a6016836123b1565b9150611e5582612638565b602082019050919050565b6000611e6d6020836123b1565b9150611e7882612661565b602082019050919050565b6000611e906013836123b1565b9150611e9b8261268a565b602082019050919050565b6000611eb36014836123b1565b9150611ebe826126b3565b602082019050919050565b6000611ed66014836123b1565b9150611ee1826126dc565b602082019050919050565b6000611ef96018836123b1565b9150611f0482612705565b602082019050919050565b6000611f1c601a836123b1565b9150611f278261272e565b602082019050919050565b6000611f3f600083612395565b9150611f4a82612757565b600082019050919050565b6000611f62602b836123b1565b9150611f6d8261275a565b604082019050919050565b6000611f856012836123b1565b9150611f90826127a9565b602082019050919050565b600061016083016000830151611fb4600086018261208a565b506020830151611fc76020860182611cfc565b506040830151611fda604086018261208a565b506060830151611fed606086018261208a565b506080830151612000608086018261208a565b5060a083015161201360a086018261208a565b5060c083015184820360c086015261202b8282611dcb565b91505060e083015161204060e086018261208a565b50610100830151612055610100860182611d8f565b5061012083015161206a6101208601826120a8565b5061014083015161207f610140860182611dad565b508091505092915050565b612093816124c3565b82525050565b6120a2816124c3565b82525050565b6120b1816124cd565b82525050565b6120c0816124cd565b82525050565b60006120d182611f32565b9150819050919050565b600060208201905081810360008301526120f58184611d1a565b905092915050565b60006020820190506121126000830184611d9e565b92915050565b600060808201905081810360008301526121328187611e04565b90506121416020830186612099565b61214e6040830185612099565b61215b6060830184612099565b95945050505050565b6000602082019050818103600083015261217d81611e3d565b9050919050565b6000602082019050818103600083015261219d81611e60565b9050919050565b600060208201905081810360008301526121bd81611e83565b9050919050565b600060208201905081810360008301526121dd81611ea6565b9050919050565b600060208201905081810360008301526121fd81611ec9565b9050919050565b6000602082019050818103600083015261221d81611eec565b9050919050565b6000602082019050818103600083015261223d81611f0f565b9050919050565b6000602082019050818103600083015261225d81611f55565b9050919050565b6000602082019050818103600083015261227d81611f78565b9050919050565b60006020820190506122996000830184612099565b92915050565b6000610160820190506122b5600083018e612099565b6122c2602083018d611d0b565b6122cf604083018c612099565b6122dc606083018b612099565b6122e9608083018a612099565b6122f660a0830189612099565b81810360c08301526123088188611e04565b905061231760e0830187612099565b612325610100830186611d9e565b6123336101208301856120b7565b612341610140830184611dbc565b9c9b505050505050505050505050565b6000819050602082019050919050565b600081519050919050565b600081519050919050565b6000602082019050919050565b600082825260208201905092915050565b600081905092915050565b600082825260208201905092915050565b600082825260208201905092915050565b60006123cd826124c3565b91506123d8836124c3565b9250827fffffffffffffffffffffffffffffffffffffffffffffffffffffffffffffffff0382111561240d5761240c61259a565b5b828201905092915050565b6000612423826124c3565b915061242e836124c3565b9250817fffffffffffffffffffffffffffffffffffffffffffffffffffffffffffffffff04831182151516156124675761246661259a565b5b828202905092915050565b600061247d826124a3565b9050919050565b60008115159050919050565b600081905061249e826127d2565b919050565b600073ffffffffffffffffffffffffffffffffffffffff82169050919050565b6000819050919050565b600060ff82169050919050565b60006124e582612490565b9050919050565b60005b8381101561250a5780820151818401526020810190506124ef565b83811115612519576000848401525b50505050565b6000600282049050600182168061253757607f821691505b6020821081141561254b5761254a6125f8565b5b50919050565b600061255c826124c3565b91507fffffffffffffffffffffffffffffffffffffffffffffffffffffffffffffffff82141561258f5761258e61259a565b5b600182019050919050565b7f4e487b7100000000000000000000000000000000000000000000000000000000600052601160045260246000fd5b7f4e487b7100000000000000000000000000000000000000000000000000000000600052602160045260246000fd5b7f4e487b7100000000000000000000000000000000000000000000000000000000600052602260045260246000fd5b6000601f19601f8301169050919050565b7f506f6c69637920416c726561647920436f766572656400000000000000000000600082015250565b7f596f752063616e277420636f76657220796f7572206f776e20706f6c6963792e600082015250565b7f55736572204e6f7420417574686f72697a656400000000000000000000000000600082015250565b7f506f6c69637920646f65736e2774206578697374000000000000000000000000600082015250565b7f506f6c696379204e6f7420416374697661746564000000000000000000000000600082015250565b7f496e636f7272656374205072656d69756d20416d6f756e740000000000000000600082015250565b7f506f6c696379277320506572696f642068617320456e6465642e000000000000600082015250565b50565b7f506c6561736520636f766572207769746820746865206578616374207265717560008201527f6972656420616d6f756e74000000000000000000000000000000000000000000602082015250565b7f5472616e73616374696f6e204661696c65640000000000000000000000000000600082015250565b600481106127e3576127e26125c9565b5b50565b6127ef81612472565b81146127fa57600080fd5b50565b61280681612484565b811461281157600080fd5b50565b61281d816124c3565b811461282857600080fd5b50565b612834816124cd565b811461283f57600080fd5b5056fea2646970667358221220114eb900a5c6231e067507fe933740fb52fa150d2f993ca00cfd6f9daab7df3f64736f6c63430008040033",
  "immutableReferences": {},
  "source": "// SPDX-License-Identifier: GPL-3.0\r\npragma solidity >=0.5.0 <0.9.0;\r\npragma experimental ABIEncoderV2;\r\n\r\ncontract Policy{\r\n    \r\n    function balanceOf() external view returns(uint) {\r\n        return address(this).balance;\r\n    }\r\n    \r\n    address private oracleId;\r\n    bytes32 private jobId;\r\n    uint256 private fee;\r\n    bool public resultReceived;\r\n    uint256 public result;\r\n\r\n    struct cropType {\r\n        string name;\r\n        uint premiumPerAcre;    //in wei\r\n        uint duration;          //in months\r\n        uint coveragePerAcre;   //in wei\r\n    }\r\n\r\n    cropType[2] public cropTypes; //crops defined in constructor\r\n    \r\n    enum policyState {Pending, Active, PaidOut, TimedOut}\r\n    struct policy {\r\n        uint policyId;\r\n        address user;\r\n        uint premium;\r\n        uint area;\r\n        uint startTime;\r\n        uint endTime;        \r\n        string location;\r\n        uint coverageAmount; \r\n        bool forFlood;\r\n        uint8 cropId;\r\n        policyState state;\r\n    }\r\n\r\n    // mapping(uint => policy) public policies;\r\n    policy[] public policies;\r\n    uint numPolicies = 0;\r\n    \r\n    // All policy ids for a particular user\r\n    mapping(address => uint[]) public userPolicies; \r\n    \r\n    //Fallback function to implement the ability for the Contract Address to Accept Ether\r\n    fallback() external payable {}\r\n    receive() external payable {}\r\n    \r\n    function newCrop(uint8 cropId, string memory name, uint premiumPerAcre, uint duration, uint coveragePerAcre) internal {\r\n        cropType memory c = cropType(name, premiumPerAcre, duration, coveragePerAcre);\r\n        cropTypes[cropId] = c;\r\n    }\r\n    \r\n    constructor() public {\r\n        newCrop(0, \"rabi\", 1, 6, 40);\r\n        newCrop(1, \"kharif\", 2, 4, 60);\r\n    }\r\n    \r\n    // Creating policy\r\n    function newPolicy (uint area, string calldata location, bool forFlood, uint8 cropId) external payable{\r\n        require(msg.value == (cropTypes[cropId].premiumPerAcre * area * 1e15), \"Incorrect Premium Amount\");\r\n        \r\n        (bool sent,) = address(this).call{value : msg.value}(\"\");\r\n        require(sent, \"Transaction Failed\");\r\n        \r\n        uint pId = numPolicies;\r\n        userPolicies[msg.sender].push(pId);\r\n        policy memory p;\r\n\r\n        p.policyId = numPolicies++;\r\n        p.user = msg.sender;\r\n        p.premium = cropTypes[cropId].premiumPerAcre * area;\r\n        p.area = area;\r\n        p.startTime = block.timestamp;\r\n        p.endTime = block.timestamp + cropTypes[cropId].duration * 30*24*60*60;  // time in seconds\r\n        p.location = location;\r\n        p.coverageAmount = cropTypes[cropId].coveragePerAcre * area;\r\n        p.forFlood = forFlood;\r\n        p.cropId = cropId;\r\n        p.state = policyState.Pending;\r\n        \r\n        policies.push(p);\r\n    }\r\n    \r\n    // Covering policy\r\n    function coverPolicy (uint policyId) external payable {\r\n        \r\n        policy storage p = policies[policyId];\r\n        require(policies[policyId].user != msg.sender, \"You can't cover your own policy.\");\r\n        require(policies[policyId].state == policyState.Pending, \"Policy Already Covered\");\r\n        require(msg.value == p.coverageAmount * 1e15, \"Please cover with the exact required amount\");\r\n        \r\n        (bool sent,) = address(this).call{value : msg.value}(\"\");\r\n        require(sent, \"Transaction Failed\");\r\n    \r\n        p.state = policyState.Active;   \r\n    }\r\n     \r\n    // View all policies\r\n    function viewAllPolicies() public view returns(policy[] memory) {\r\n        return policies;\r\n    }\r\n    \r\n    // View my policies\r\n    function viewMyPolicies(address user) public view returns(policy[] memory) {\r\n        \r\n        uint len = userPolicies[user].length;\r\n        policy[] memory res = new policy[](len);\r\n        \r\n        for(uint i = 0; i < len; i++) {\r\n            res[i] = policies[userPolicies[user][i]];\r\n        }\r\n        \r\n        return res;\r\n    }\r\n    \r\n    //Claiming policy\r\n    function claimPolicy(uint policyId) public {\r\n        require(policyId < policies.length, \"Policy doesn't exist\");\r\n        require(msg.sender == policies[policyId].user, \"User Not Authorized\");\r\n        \r\n        require(policies[policyId].state == policyState.Active, \"Policy Not Activated\");\r\n\r\n        if(block.timestamp > policies[policyId].endTime)\r\n        {\r\n            policies[policyId].state = policyState.TimedOut;\r\n            revert(\"Policy's Period has Ended.\");\r\n        }\r\n    \r\n        // string memory location = policies[policyId].location;\r\n\r\n        // DateTime dt = DateTime(addressGetTime);\r\n        // uint16 year = dt.getYear(timestamp);\r\n        // string memory y = uint2str(year);\r\n        // uint8 month = dt.getMonth(timestamp);\r\n        // string memory m = uint2str(month);\r\n        // uint8 day = dt.getDay(timestamp);\r\n        // string memory d = uint2str(day);\r\n\r\n        // string memory date = y.toSlice().concat(\"-\".toSlice());\r\n        // date = date.toSlice().concat(m.toSlice());\r\n        // date = date.toSlice().concat(\"-\".toSlice());\r\n        // date = date.toSlice().concat(d.toSlice());\r\n\r\n        //claimPolicyId = policyId;\r\n        //makeRequest(location, date);\r\n        (bool sent,) = policies[policyId].user.call{value : policies[policyId].coverageAmount * 1e15}(\"\");\r\n        require(sent, \"Transaction Failed\");\r\n        \r\n        policies[policyId].state = policyState.PaidOut;\r\n    }\r\n    \r\n    // function makeRequest(string memory _location, string memory _date) public returns (bytes32 requestId)\r\n    // {\r\n    //     Chainlink.Request memory req = buildChainlinkRequest(jobId, address(this), this.fulfill.selector);\r\n    //     req.add(\"path\", \"main\");\r\n    //     req.add(\"path\", \"humidity\");\r\n        \r\n    //     requestId = sendChainlinkRequestTo(oracleId, req, fee);\r\n    // }\r\n    \r\n    // function fulfill(bytes32 _requestId, uint256 _result)\r\n    // public\r\n    // recordChainlinkFulfillment(_requestId)\r\n    // {\r\n    //     resultReceived = true;\r\n    //     result = _result;\r\n        // uint payoutAmount;\r\n\r\n        // if(policies[claimPolicyId].forFlood)\r\n        // {\r\n        //     if(_result < floodBaseMin)\r\n        //         revert(\"There is No Flood\");\r\n\r\n        //     if(_result > floodBaseMax)\r\n        //     {\r\n        //         payoutAmount = uint(policies[claimPolicyId].coverageAmount * floodMaxPayout/100);\r\n        //         policies[claimPolicyId].user.transfer(payoutAmount);\r\n        //         policies[claimPolicyId].state = policyState.PaidOut;\r\n        //     }\r\n        //     else\r\n        //     {\r\n        //         payoutAmount = uint(policies[claimPolicyId].coverageAmount * floodBasePayout/100);\r\n        //         policies[claimPolicyId].user.transfer(payoutAmount);\r\n        //         policies[claimPolicyId].state = policyState.PaidOut;\r\n        //     }\r\n        // }\r\n        // else\r\n        // {\r\n        //     if(_result > droughtBaseMax)\r\n        //         revert(\"There is No Drought\");\r\n\r\n        //     if(_result < droughtBaseMin)\r\n        //     {\r\n        //         payoutAmount = uint(policies[claimPolicyId].coverageAmount * droughtMaxPayout/100);\r\n        //         policies[claimPolicyId].user.transfer(payoutAmount);\r\n        //         policies[claimPolicyId].state = policyState.PaidOut;\r\n        //     }\r\n        //     else\r\n        //     {\r\n        //         payoutAmount = uint(policies[claimPolicyId].coverageAmount * droughtBasePayout/100);\r\n        //         policies[claimPolicyId].user.transfer(payoutAmount);\r\n        //         policies[claimPolicyId].state = policyState.PaidOut;\r\n        //     }\r\n        // }\r\n\r\n        // resetResult();\r\n    // }\r\n    \r\n    \r\n    // function uint2str(uint v) pure internal returns (string memory str) {\r\n    //     uint maxlength = 100;\r\n    //     bytes memory reversed = new bytes(maxlength);\r\n    //     uint i = 0;\r\n    //     while (v != 0) {\r\n    //         uint remainder = v % 10;\r\n    //         v = v / 10;\r\n    //         reversed[i++] = bytes1(uint8(48 + remainder));\r\n    //     }\r\n    //     bytes memory s = new bytes(i);\r\n    //     for (uint j = 0; j < i; j++) {\r\n    //         s[j] = reversed[i - 1 - j];\r\n    //     }\r\n    //     str = string(s);\r\n    // }\r\n    \r\n    \r\n}",
  "sourcePath": "F:\\Projects\\Decentralized_crop_insurance\\contracts\\Policy.sol",
  "compiler": {
    "name": "solc",
    "version": "0.8.4+commit.c7e474f2.Emscripten.clang"
  },
  "schemaVersion": "3.4.3",
  "updatedAt": "2021-10-18T08:50:59.413Z",
  "networkType": "ethereum",
  "devdoc": {
    "kind": "dev",
    "methods": {},
    "version": 1
  },
  "userdoc": {
    "kind": "user",
    "methods": {},
    "version": 1
  }
}