{
  "contractName": "Policy",
  "abi": [
    {
      "inputs": [],
      "stateMutability": "nonpayable",
      "type": "constructor"
    },
    {
      "stateMutability": "payable",
      "type": "fallback",
      "payable": true
    },
    {
      "inputs": [
        {
          "internalType": "uint256",
          "name": "",
          "type": "uint256"
        }
      ],
      "name": "cropTypes",
      "outputs": [
        {
          "internalType": "string",
          "name": "name",
          "type": "string"
        },
        {
          "internalType": "uint256",
          "name": "premiumPerAcre",
          "type": "uint256"
        },
        {
          "internalType": "uint256",
          "name": "duration",
          "type": "uint256"
        },
        {
          "internalType": "uint256",
          "name": "coveragePerAcre",
          "type": "uint256"
        }
      ],
      "stateMutability": "view",
      "type": "function",
      "constant": true
    },
    {
      "inputs": [
        {
          "internalType": "uint256",
          "name": "",
          "type": "uint256"
        }
      ],
      "name": "policies",
      "outputs": [
        {
          "internalType": "uint256",
          "name": "policyId",
          "type": "uint256"
        },
        {
          "internalType": "address",
          "name": "user",
          "type": "address"
        },
        {
          "internalType": "uint256",
          "name": "premium",
          "type": "uint256"
        },
        {
          "internalType": "uint256",
          "name": "area",
          "type": "uint256"
        },
        {
          "internalType": "uint256",
          "name": "startTime",
          "type": "uint256"
        },
        {
          "internalType": "uint256",
          "name": "endTime",
          "type": "uint256"
        },
        {
          "internalType": "string",
          "name": "location",
          "type": "string"
        },
        {
          "internalType": "uint256",
          "name": "coverageAmount",
          "type": "uint256"
        },
        {
          "internalType": "bool",
          "name": "forFlood",
          "type": "bool"
        },
        {
          "internalType": "uint8",
          "name": "cropId",
          "type": "uint8"
        },
        {
          "internalType": "enum Policy.policyState",
          "name": "state",
          "type": "uint8"
        }
      ],
      "stateMutability": "view",
      "type": "function",
      "constant": true
    },
    {
      "inputs": [],
      "name": "result",
      "outputs": [
        {
          "internalType": "uint256",
          "name": "",
          "type": "uint256"
        }
      ],
      "stateMutability": "view",
      "type": "function",
      "constant": true
    },
    {
      "inputs": [],
      "name": "resultReceived",
      "outputs": [
        {
          "internalType": "bool",
          "name": "",
          "type": "bool"
        }
      ],
      "stateMutability": "view",
      "type": "function",
      "constant": true
    },
    {
      "inputs": [
        {
          "internalType": "address",
          "name": "",
          "type": "address"
        },
        {
          "internalType": "uint256",
          "name": "",
          "type": "uint256"
        }
      ],
      "name": "userPolicies",
      "outputs": [
        {
          "internalType": "uint256",
          "name": "",
          "type": "uint256"
        }
      ],
      "stateMutability": "view",
      "type": "function",
      "constant": true
    },
    {
      "stateMutability": "payable",
      "type": "receive",
      "payable": true
    },
    {
      "inputs": [],
      "name": "balanceOf",
      "outputs": [
        {
          "internalType": "uint256",
          "name": "",
          "type": "uint256"
        }
      ],
      "stateMutability": "view",
      "type": "function",
      "constant": true
    },
    {
      "inputs": [
        {
          "internalType": "uint256",
          "name": "area",
          "type": "uint256"
        },
        {
          "internalType": "string",
          "name": "location",
          "type": "string"
        },
        {
          "internalType": "bool",
          "name": "forFlood",
          "type": "bool"
        },
        {
          "internalType": "uint8",
          "name": "cropId",
          "type": "uint8"
        }
      ],
      "name": "newPolicy",
      "outputs": [],
      "stateMutability": "payable",
      "type": "function",
      "payable": true
    },
    {
      "inputs": [
        {
          "internalType": "uint256",
          "name": "policyId",
          "type": "uint256"
        }
      ],
      "name": "coverPolicy",
      "outputs": [],
      "stateMutability": "payable",
      "type": "function",
      "payable": true
    },
    {
      "inputs": [],
      "name": "viewAllPolicies",
      "outputs": [
        {
          "components": [
            {
              "internalType": "uint256",
              "name": "policyId",
              "type": "uint256"
            },
            {
              "internalType": "address",
              "name": "user",
              "type": "address"
            },
            {
              "internalType": "uint256",
              "name": "premium",
              "type": "uint256"
            },
            {
              "internalType": "uint256",
              "name": "area",
              "type": "uint256"
            },
            {
              "internalType": "uint256",
              "name": "startTime",
              "type": "uint256"
            },
            {
              "internalType": "uint256",
              "name": "endTime",
              "type": "uint256"
            },
            {
              "internalType": "string",
              "name": "location",
              "type": "string"
            },
            {
              "internalType": "uint256",
              "name": "coverageAmount",
              "type": "uint256"
            },
            {
              "internalType": "bool",
              "name": "forFlood",
              "type": "bool"
            },
            {
              "internalType": "uint8",
              "name": "cropId",
              "type": "uint8"
            },
            {
              "internalType": "enum Policy.policyState",
              "name": "state",
              "type": "uint8"
            }
          ],
          "internalType": "struct Policy.policy[]",
          "name": "",
          "type": "tuple[]"
        }
      ],
      "stateMutability": "view",
      "type": "function",
      "constant": true
    },
    {
      "inputs": [
        {
          "internalType": "address",
          "name": "user",
          "type": "address"
        }
      ],
      "name": "viewMyPolicies",
      "outputs": [
        {
          "components": [
            {
              "internalType": "uint256",
              "name": "policyId",
              "type": "uint256"
            },
            {
              "internalType": "address",
              "name": "user",
              "type": "address"
            },
            {
              "internalType": "uint256",
              "name": "premium",
              "type": "uint256"
            },
            {
              "internalType": "uint256",
              "name": "area",
              "type": "uint256"
            },
            {
              "internalType": "uint256",
              "name": "startTime",
              "type": "uint256"
            },
            {
              "internalType": "uint256",
              "name": "endTime",
              "type": "uint256"
            },
            {
              "internalType": "string",
              "name": "location",
              "type": "string"
            },
            {
              "internalType": "uint256",
              "name": "coverageAmount",
              "type": "uint256"
            },
            {
              "internalType": "bool",
              "name": "forFlood",
              "type": "bool"
            },
            {
              "internalType": "uint8",
              "name": "cropId",
              "type": "uint8"
            },
            {
              "internalType": "enum Policy.policyState",
              "name": "state",
              "type": "uint8"
            }
          ],
          "internalType": "struct Policy.policy[]",
          "name": "",
          "type": "tuple[]"
        }
      ],
      "stateMutability": "view",
      "type": "function",
      "constant": true
    },
    {
      "inputs": [
        {
          "internalType": "uint256",
          "name": "policyId",
          "type": "uint256"
        }
      ],
      "name": "claimPolicy",
      "outputs": [],
      "stateMutability": "nonpayable",
      "type": "function"
    }
  ],
  "bytecode": "0x60806040526000600e553480156200001657600080fd5b506200006560006040518060400160405280600481526020017f7261626900000000000000000000000000000000000000000000000000000000815250600160066007620000b960201b60201c565b620000b360016040518060400160405280600681526020017f6b6861726966000000000000000000000000000000000000000000000000000081525060026004600a620000b960201b60201c565b6200027e565b600060405180608001604052808681526020018581526020018481526020018381525090508060058760ff16600281106200011d577f4e487b7100000000000000000000000000000000000000000000000000000000600052603260045260246000fd5b6004020160008201518160000190805190602001906200013f92919062000169565b50602082015181600101556040820151816002015560608201518160030155905050505050505050565b828054620001779062000219565b90600052602060002090601f0160209004810192826200019b5760008555620001e7565b82601f10620001b657805160ff1916838001178555620001e7565b82800160010185558215620001e7579182015b82811115620001e6578251825591602001919060010190620001c9565b5b509050620001f69190620001fa565b5090565b5b8082111562000215576000816000905550600101620001fb565b5090565b600060028204905060018216806200023257607f821691505b602082108114156200024957620002486200024f565b5b50919050565b7f4e487b7100000000000000000000000000000000000000000000000000000000600052602260045260246000fd5b612842806200028e6000396000f3fe6080604052600436106100a05760003560e01c80635a8f29ed116100645780635a8f29ed1461019357806365372147146101d3578063722713f7146101fe5780637fd7fe5714610229578063c160693d14610245578063d3e8948314610270576100a7565b806321d5e176146100a95780632aea118d146100c55780633d36adc5146100ee578063481397c31461012b5780634cd38cc214610168576100a7565b366100a757005b005b6100c360048036038101906100be9190611c09565b6102b7565b005b3480156100d157600080fd5b506100ec60048036038101906100e79190611c09565b610632565b005b3480156100fa57600080fd5b5061011560048036038101906101109190611bcd565b610b85565b604051610122919061224e565b60405180910390f35b34801561013757600080fd5b50610152600480360381019061014d9190611ba4565b610bb6565b60405161015f91906120a5565b60405180910390f35b34801561017457600080fd5b5061017d610fa2565b60405161018a91906120c7565b60405180910390f35b34801561019f57600080fd5b506101ba60048036038101906101b59190611c09565b610fb5565b6040516101ca94939291906120e2565b60405180910390f35b3480156101df57600080fd5b506101e8611073565b6040516101f5919061224e565b60405180910390f35b34801561020a57600080fd5b50610213611079565b604051610220919061224e565b60405180910390f35b610243600480360381019061023e9190611c32565b611081565b005b34801561025157600080fd5b5061025a61163a565b60405161026791906120a5565b60405180910390f35b34801561027c57600080fd5b5061029760048036038101906102929190611c09565b61187d565b6040516102ae9b9a99989796959493929190612269565b60405180910390f35b6000600d82815481106102f3577f4e487b7100000000000000000000000000000000000000000000000000000000600052603260045260246000fd5b906000526020600020906009020190503373ffffffffffffffffffffffffffffffffffffffff16600d8381548110610354577f4e487b7100000000000000000000000000000000000000000000000000000000600052603260045260246000fd5b906000526020600020906009020160010160009054906101000a900473ffffffffffffffffffffffffffffffffffffffff1673ffffffffffffffffffffffffffffffffffffffff1614156103dd576040517f08c379a00000000000000000000000000000000000000000000000000000000081526004016103d49061214e565b60405180910390fd5b60006003811115610417577f4e487b7100000000000000000000000000000000000000000000000000000000600052602160045260246000fd5b600d8381548110610451577f4e487b7100000000000000000000000000000000000000000000000000000000600052603260045260246000fd5b906000526020600020906009020160080160029054906101000a900460ff1660038111156104a8577f4e487b7100000000000000000000000000000000000000000000000000000000600052602160045260246000fd5b146104e8576040517f08c379a00000000000000000000000000000000000000000000000000000000081526004016104df9061212e565b60405180910390fd5b8060070154341461052e576040517f08c379a00000000000000000000000000000000000000000000000000000000081526004016105259061220e565b60405180910390fd5b60003073ffffffffffffffffffffffffffffffffffffffff163460405161055490612090565b60006040518083038185875af1925050503d8060008114610591576040519150601f19603f3d011682016040523d82523d6000602084013e610596565b606091505b50509050806105da576040517f08c379a00000000000000000000000000000000000000000000000000000000081526004016105d19061222e565b60405180910390fd5b60018260080160026101000a81548160ff02191690836003811115610628577f4e487b7100000000000000000000000000000000000000000000000000000000600052602160045260246000fd5b0217905550505050565b600d805490508110610679576040517f08c379a00000000000000000000000000000000000000000000000000000000081526004016106709061218e565b60405180910390fd5b600d81815481106106b3577f4e487b7100000000000000000000000000000000000000000000000000000000600052603260045260246000fd5b906000526020600020906009020160010160009054906101000a900473ffffffffffffffffffffffffffffffffffffffff1673ffffffffffffffffffffffffffffffffffffffff163373ffffffffffffffffffffffffffffffffffffffff1614610752576040517f08c379a00000000000000000000000000000000000000000000000000000000081526004016107499061216e565b60405180910390fd5b6001600381111561078c577f4e487b7100000000000000000000000000000000000000000000000000000000600052602160045260246000fd5b600d82815481106107c6577f4e487b7100000000000000000000000000000000000000000000000000000000600052603260045260246000fd5b906000526020600020906009020160080160029054906101000a900460ff16600381111561081d577f4e487b7100000000000000000000000000000000000000000000000000000000600052602160045260246000fd5b1461085d576040517f08c379a0000000000000000000000000000000000000000000000000000000008152600401610854906121ae565b60405180910390fd5b600d8181548110610897577f4e487b7100000000000000000000000000000000000000000000000000000000600052603260045260246000fd5b906000526020600020906009020160050154421115610985576003600d82815481106108ec577f4e487b7100000000000000000000000000000000000000000000000000000000600052603260045260246000fd5b906000526020600020906009020160080160026101000a81548160ff02191690836003811115610945577f4e487b7100000000000000000000000000000000000000000000000000000000600052602160045260246000fd5b02179055506040517f08c379a000000000000000000000000000000000000000000000000000000000815260040161097c906121ee565b60405180910390fd5b6000600d82815481106109c1577f4e487b7100000000000000000000000000000000000000000000000000000000600052603260045260246000fd5b906000526020600020906009020160010160009054906101000a900473ffffffffffffffffffffffffffffffffffffffff1673ffffffffffffffffffffffffffffffffffffffff16600d8381548110610a43577f4e487b7100000000000000000000000000000000000000000000000000000000600052603260045260246000fd5b906000526020600020906009020160070154604051610a6190612090565b60006040518083038185875af1925050503d8060008114610a9e576040519150601f19603f3d011682016040523d82523d6000602084013e610aa3565b606091505b5050905080610ae7576040517f08c379a0000000000000000000000000000000000000000000000000000000008152600401610ade9061222e565b60405180910390fd5b6002600d8381548110610b23577f4e487b7100000000000000000000000000000000000000000000000000000000600052603260045260246000fd5b906000526020600020906009020160080160026101000a81548160ff02191690836003811115610b7c577f4e487b7100000000000000000000000000000000000000000000000000000000600052602160045260246000fd5b02179055505050565b600f6020528160005260406000208181548110610ba157600080fd5b90600052602060002001600091509150505481565b60606000600f60008473ffffffffffffffffffffffffffffffffffffffff1673ffffffffffffffffffffffffffffffffffffffff16815260200190815260200160002080549050905060008167ffffffffffffffff811115610c41577f4e487b7100000000000000000000000000000000000000000000000000000000600052604160045260246000fd5b604051908082528060200260200182016040528015610c7a57816020015b610c676119b6565b815260200190600190039081610c5f5790505b50905060005b82811015610f9757600d600f60008773ffffffffffffffffffffffffffffffffffffffff1673ffffffffffffffffffffffffffffffffffffffff1681526020019081526020016000208281548110610d01577f4e487b7100000000000000000000000000000000000000000000000000000000600052603260045260246000fd5b906000526020600020015481548110610d43577f4e487b7100000000000000000000000000000000000000000000000000000000600052603260045260246000fd5b906000526020600020906009020160405180610160016040529081600082015481526020016001820160009054906101000a900473ffffffffffffffffffffffffffffffffffffffff1673ffffffffffffffffffffffffffffffffffffffff1673ffffffffffffffffffffffffffffffffffffffff16815260200160028201548152602001600382015481526020016004820154815260200160058201548152602001600682018054610df5906124e9565b80601f0160208091040260200160405190810160405280929190818152602001828054610e21906124e9565b8015610e6e5780601f10610e4357610100808354040283529160200191610e6e565b820191906000526020600020905b815481529060010190602001808311610e5157829003601f168201915b50505050508152602001600782015481526020016008820160009054906101000a900460ff161515151581526020016008820160019054906101000a900460ff1660ff1660ff1681526020016008820160029054906101000a900460ff166003811115610f04577f4e487b7100000000000000000000000000000000000000000000000000000000600052602160045260246000fd5b6003811115610f3c577f4e487b7100000000000000000000000000000000000000000000000000000000600052602160045260246000fd5b81525050828281518110610f79577f4e487b7100000000000000000000000000000000000000000000000000000000600052603260045260246000fd5b60200260200101819052508080610f8f9061251b565b915050610c80565b508092505050919050565b600360009054906101000a900460ff1681565b60058160028110610fc557600080fd5b60040201600091509050806000018054610fde906124e9565b80601f016020809104026020016040519081016040528092919081815260200182805461100a906124e9565b80156110575780601f1061102c57610100808354040283529160200191611057565b820191906000526020600020905b81548152906001019060200180831161103a57829003601f168201915b5050505050908060010154908060020154908060030154905084565b60045481565b600047905090565b8460058260ff16600281106110bf577f4e487b7100000000000000000000000000000000000000000000000000000000600052603260045260246000fd5b60040201600101546110d191906123e2565b3414611112576040517f08c379a0000000000000000000000000000000000000000000000000000000008152600401611109906121ce565b60405180910390fd5b60003073ffffffffffffffffffffffffffffffffffffffff163460405161113890612090565b60006040518083038185875af1925050503d8060008114611175576040519150601f19603f3d011682016040523d82523d6000602084013e61117a565b606091505b50509050806111be576040517f08c379a00000000000000000000000000000000000000000000000000000000081526004016111b59061222e565b60405180910390fd5b6000600e549050600f60003373ffffffffffffffffffffffffffffffffffffffff1673ffffffffffffffffffffffffffffffffffffffff1681526020019081526020016000208190806001815401808255809150506001900390600052602060002001600090919091909150556112336119b6565b600e60008154809291906112469061251b565b9190505581600001818152505033816020019073ffffffffffffffffffffffffffffffffffffffff16908173ffffffffffffffffffffffffffffffffffffffff16815250508760058560ff16600281106112c9577f4e487b7100000000000000000000000000000000000000000000000000000000600052603260045260246000fd5b60040201600101546112db91906123e2565b8160400181815250508781606001818152505042816080018181525050603c806018601e60058860ff166002811061133c577f4e487b7100000000000000000000000000000000000000000000000000000000600052603260045260246000fd5b600402016002015461134e91906123e2565b61135891906123e2565b61136291906123e2565b61136c91906123e2565b42611377919061238c565b8160a001818152505086868080601f016020809104026020016040519081016040528093929190818152602001838380828437600081840152601f19601f820116905080830192505050505050508160c001819052508760058560ff166002811061140b577f4e487b7100000000000000000000000000000000000000000000000000000000600052603260045260246000fd5b600402016003015461141d91906123e2565b8160e001818152505084816101000190151590811515815250508381610120019060ff16908160ff16815250506000816101400190600381111561148a577f4e487b7100000000000000000000000000000000000000000000000000000000600052602160045260246000fd5b908160038111156114c4577f4e487b7100000000000000000000000000000000000000000000000000000000600052602160045260246000fd5b81525050600d8190806001815401808255809150506001900390600052602060002090600902016000909190919091506000820151816000015560208201518160010160006101000a81548173ffffffffffffffffffffffffffffffffffffffff021916908373ffffffffffffffffffffffffffffffffffffffff16021790555060408201518160020155606082015181600301556080820151816004015560a0820151816005015560c0820151816006019080519060200190611589929190611a63565b5060e082015181600701556101008201518160080160006101000a81548160ff0219169083151502179055506101208201518160080160016101000a81548160ff021916908360ff1602179055506101408201518160080160026101000a81548160ff02191690836003811115611629577f4e487b7100000000000000000000000000000000000000000000000000000000600052602160045260246000fd5b021790555050505050505050505050565b6060600d805480602002602001604051908101604052809291908181526020016000905b82821015611874578382906000526020600020906009020160405180610160016040529081600082015481526020016001820160009054906101000a900473ffffffffffffffffffffffffffffffffffffffff1673ffffffffffffffffffffffffffffffffffffffff1673ffffffffffffffffffffffffffffffffffffffff1681526020016002820154815260200160038201548152602001600482015481526020016005820154815260200160068201805461171a906124e9565b80601f0160208091040260200160405190810160405280929190818152602001828054611746906124e9565b80156117935780601f1061176857610100808354040283529160200191611793565b820191906000526020600020905b81548152906001019060200180831161177657829003601f168201915b50505050508152602001600782015481526020016008820160009054906101000a900460ff161515151581526020016008820160019054906101000a900460ff1660ff1660ff1681526020016008820160029054906101000a900460ff166003811115611829577f4e487b7100000000000000000000000000000000000000000000000000000000600052602160045260246000fd5b6003811115611861577f4e487b7100000000000000000000000000000000000000000000000000000000600052602160045260246000fd5b815250508152602001906001019061165e565b50505050905090565b600d818154811061188d57600080fd5b90600052602060002090600902016000915090508060000154908060010160009054906101000a900473ffffffffffffffffffffffffffffffffffffffff16908060020154908060030154908060040154908060050154908060060180546118f4906124e9565b80601f0160208091040260200160405190810160405280929190818152602001828054611920906124e9565b801561196d5780601f106119425761010080835404028352916020019161196d565b820191906000526020600020905b81548152906001019060200180831161195057829003601f168201915b5050505050908060070154908060080160009054906101000a900460ff16908060080160019054906101000a900460ff16908060080160029054906101000a900460ff1690508b565b60405180610160016040528060008152602001600073ffffffffffffffffffffffffffffffffffffffff168152602001600081526020016000815260200160008152602001600081526020016060815260200160008152602001600015158152602001600060ff16815260200160006003811115611a5d577f4e487b7100000000000000000000000000000000000000000000000000000000600052602160045260246000fd5b81525090565b828054611a6f906124e9565b90600052602060002090601f016020900481019282611a915760008555611ad8565b82601f10611aaa57805160ff1916838001178555611ad8565b82800160010185558215611ad8579182015b82811115611ad7578251825591602001919060010190611abc565b5b509050611ae59190611ae9565b5090565b5b80821115611b02576000816000905550600101611aea565b5090565b600081359050611b15816127b0565b92915050565b600081359050611b2a816127c7565b92915050565b60008083601f840112611b4257600080fd5b8235905067ffffffffffffffff811115611b5b57600080fd5b602083019150836001820283011115611b7357600080fd5b9250929050565b600081359050611b89816127de565b92915050565b600081359050611b9e816127f5565b92915050565b600060208284031215611bb657600080fd5b6000611bc484828501611b06565b91505092915050565b60008060408385031215611be057600080fd5b6000611bee85828601611b06565b9250506020611bff85828601611b7a565b9150509250929050565b600060208284031215611c1b57600080fd5b6000611c2984828501611b7a565b91505092915050565b600080600080600060808688031215611c4a57600080fd5b6000611c5888828901611b7a565b955050602086013567ffffffffffffffff811115611c7557600080fd5b611c8188828901611b30565b94509450506040611c9488828901611b1b565b9250506060611ca588828901611b8f565b9150509295509295909350565b6000611cbe8383611f65565b905092915050565b611ccf8161243c565b82525050565b611cde8161243c565b82525050565b6000611cef8261232b565b611cf9818561234e565b935083602082028501611d0b8561231b565b8060005b85811015611d475784840389528151611d288582611cb2565b9450611d3383612341565b925060208a01995050600181019050611d0f565b50829750879550505050505092915050565b611d628161244e565b82525050565b611d718161244e565b82525050565b611d80816124a4565b82525050565b611d8f816124a4565b82525050565b6000611da082612336565b611daa818561236a565b9350611dba8185602086016124b6565b611dc3816125f1565b840191505092915050565b6000611dd982612336565b611de3818561237b565b9350611df38185602086016124b6565b611dfc816125f1565b840191505092915050565b6000611e1460168361237b565b9150611e1f82612602565b602082019050919050565b6000611e3760208361237b565b9150611e428261262b565b602082019050919050565b6000611e5a60138361237b565b9150611e6582612654565b602082019050919050565b6000611e7d60148361237b565b9150611e888261267d565b602082019050919050565b6000611ea060148361237b565b9150611eab826126a6565b602082019050919050565b6000611ec360188361237b565b9150611ece826126cf565b602082019050919050565b6000611ee6601a8361237b565b9150611ef1826126f8565b602082019050919050565b6000611f0960008361235f565b9150611f1482612721565b600082019050919050565b6000611f2c602b8361237b565b9150611f3782612724565b604082019050919050565b6000611f4f60128361237b565b9150611f5a82612773565b602082019050919050565b600061016083016000830151611f7e6000860182612054565b506020830151611f916020860182611cc6565b506040830151611fa46040860182612054565b506060830151611fb76060860182612054565b506080830151611fca6080860182612054565b5060a0830151611fdd60a0860182612054565b5060c083015184820360c0860152611ff58282611d95565b91505060e083015161200a60e0860182612054565b5061010083015161201f610100860182611d59565b50610120830151612034610120860182612072565b50610140830151612049610140860182611d77565b508091505092915050565b61205d8161248d565b82525050565b61206c8161248d565b82525050565b61207b81612497565b82525050565b61208a81612497565b82525050565b600061209b82611efc565b9150819050919050565b600060208201905081810360008301526120bf8184611ce4565b905092915050565b60006020820190506120dc6000830184611d68565b92915050565b600060808201905081810360008301526120fc8187611dce565b905061210b6020830186612063565b6121186040830185612063565b6121256060830184612063565b95945050505050565b6000602082019050818103600083015261214781611e07565b9050919050565b6000602082019050818103600083015261216781611e2a565b9050919050565b6000602082019050818103600083015261218781611e4d565b9050919050565b600060208201905081810360008301526121a781611e70565b9050919050565b600060208201905081810360008301526121c781611e93565b9050919050565b600060208201905081810360008301526121e781611eb6565b9050919050565b6000602082019050818103600083015261220781611ed9565b9050919050565b6000602082019050818103600083015261222781611f1f565b9050919050565b6000602082019050818103600083015261224781611f42565b9050919050565b60006020820190506122636000830184612063565b92915050565b60006101608201905061227f600083018e612063565b61228c602083018d611cd5565b612299604083018c612063565b6122a6606083018b612063565b6122b3608083018a612063565b6122c060a0830189612063565b81810360c08301526122d28188611dce565b90506122e160e0830187612063565b6122ef610100830186611d68565b6122fd610120830185612081565b61230b610140830184611d86565b9c9b505050505050505050505050565b6000819050602082019050919050565b600081519050919050565b600081519050919050565b6000602082019050919050565b600082825260208201905092915050565b600081905092915050565b600082825260208201905092915050565b600082825260208201905092915050565b60006123978261248d565b91506123a28361248d565b9250827fffffffffffffffffffffffffffffffffffffffffffffffffffffffffffffffff038211156123d7576123d6612564565b5b828201905092915050565b60006123ed8261248d565b91506123f88361248d565b9250817fffffffffffffffffffffffffffffffffffffffffffffffffffffffffffffffff048311821515161561243157612430612564565b5b828202905092915050565b60006124478261246d565b9050919050565b60008115159050919050565b60008190506124688261279c565b919050565b600073ffffffffffffffffffffffffffffffffffffffff82169050919050565b6000819050919050565b600060ff82169050919050565b60006124af8261245a565b9050919050565b60005b838110156124d45780820151818401526020810190506124b9565b838111156124e3576000848401525b50505050565b6000600282049050600182168061250157607f821691505b60208210811415612515576125146125c2565b5b50919050565b60006125268261248d565b91507fffffffffffffffffffffffffffffffffffffffffffffffffffffffffffffffff82141561255957612558612564565b5b600182019050919050565b7f4e487b7100000000000000000000000000000000000000000000000000000000600052601160045260246000fd5b7f4e487b7100000000000000000000000000000000000000000000000000000000600052602160045260246000fd5b7f4e487b7100000000000000000000000000000000000000000000000000000000600052602260045260246000fd5b6000601f19601f8301169050919050565b7f506f6c69637920416c726561647920436f766572656400000000000000000000600082015250565b7f596f752063616e277420636f76657220796f7572206f776e20706f6c6963792e600082015250565b7f55736572204e6f7420417574686f72697a656400000000000000000000000000600082015250565b7f506f6c69637920646f65736e2774206578697374000000000000000000000000600082015250565b7f506f6c696379204e6f7420416374697661746564000000000000000000000000600082015250565b7f496e636f7272656374205072656d69756d20416d6f756e740000000000000000600082015250565b7f506f6c696379277320506572696f642068617320456e6465642e000000000000600082015250565b50565b7f506c6561736520636f766572207769746820746865206578616374207265717560008201527f6972656420616d6f756e74000000000000000000000000000000000000000000602082015250565b7f5472616e73616374696f6e204661696c65640000000000000000000000000000600082015250565b600481106127ad576127ac612593565b5b50565b6127b98161243c565b81146127c457600080fd5b50565b6127d08161244e565b81146127db57600080fd5b50565b6127e78161248d565b81146127f257600080fd5b50565b6127fe81612497565b811461280957600080fd5b5056fea2646970667358221220827cfb2da5c7fab05946e25cc8aed68c870ad054abcd5ca1189e2b68d592767664736f6c63430008040033",
  "immutableReferences": {},
  "source": "// SPDX-License-Identifier: GPL-3.0\r\npragma solidity >=0.5.0 <0.9.0;\r\npragma experimental ABIEncoderV2;\r\n\r\ncontract Policy{\r\n    \r\n    function balanceOf() external view returns(uint) {\r\n        return address(this).balance;\r\n    }\r\n    \r\n    address private oracleId;\r\n    bytes32 private jobId;\r\n    uint256 private fee;\r\n    bool public resultReceived;\r\n    uint256 public result;\r\n\r\n    struct cropType {\r\n        string name;\r\n        uint premiumPerAcre;    //in wei\r\n        uint duration;          //in months\r\n        uint coveragePerAcre;   //in wei\r\n    }\r\n\r\n    cropType[2] public cropTypes; //crops defined in constructor\r\n    \r\n    enum policyState {Pending, Active, PaidOut, TimedOut}\r\n    struct policy {\r\n        uint policyId;\r\n        address user;\r\n        uint premium;\r\n        uint area;\r\n        uint startTime;\r\n        uint endTime;        \r\n        string location;\r\n        uint coverageAmount; \r\n        bool forFlood;\r\n        uint8 cropId;\r\n        policyState state;\r\n    }\r\n\r\n    // mapping(uint => policy) public policies;\r\n    policy[] public policies;\r\n    uint numPolicies = 0;\r\n    \r\n    // All policy ids for a particular user\r\n    mapping(address => uint[]) public userPolicies; \r\n    \r\n    //Fallback function to implement the ability for the Contract Address to Accept Ether\r\n    fallback() external payable {}\r\n    receive() external payable {}\r\n    \r\n    function newCrop(uint8 cropId, string memory name, uint premiumPerAcre, uint duration, uint coveragePerAcre) internal {\r\n        cropType memory c = cropType(name, premiumPerAcre, duration, coveragePerAcre);\r\n        cropTypes[cropId] = c;\r\n    }\r\n    \r\n    constructor() public {\r\n        newCrop(0, \"rabi\", 1, 6, 7);\r\n        newCrop(1, \"kharif\", 2, 4, 10);\r\n    }\r\n    \r\n    // Creating policy\r\n    function newPolicy (uint area, string calldata location, bool forFlood, uint8 cropId) external payable{\r\n        require(msg.value == (cropTypes[cropId].premiumPerAcre * area), \"Incorrect Premium Amount\");\r\n        \r\n        (bool sent,) = address(this).call{value : msg.value}(\"\");\r\n        require(sent, \"Transaction Failed\");\r\n        \r\n        uint pId = numPolicies;\r\n        userPolicies[msg.sender].push(pId);\r\n        policy memory p;\r\n\r\n        p.policyId = numPolicies++;\r\n        p.user = msg.sender;\r\n        p.premium = cropTypes[cropId].premiumPerAcre * area;\r\n        p.area = area;\r\n        p.startTime = block.timestamp;\r\n        p.endTime = block.timestamp + cropTypes[cropId].duration * 30*24*60*60;  // time in seconds\r\n        p.location = location;\r\n        p.coverageAmount = cropTypes[cropId].coveragePerAcre * area;\r\n        p.forFlood = forFlood;\r\n        p.cropId = cropId;\r\n        p.state = policyState.Pending;\r\n        \r\n        policies.push(p);\r\n    }\r\n    \r\n    // Covering policy\r\n    function coverPolicy (uint policyId) external payable {\r\n        \r\n        policy storage p = policies[policyId];\r\n        require(policies[policyId].user != msg.sender, \"You can't cover your own policy.\");\r\n        require(policies[policyId].state == policyState.Pending, \"Policy Already Covered\");\r\n        require(msg.value == p.coverageAmount, \"Please cover with the exact required amount\");\r\n        \r\n        (bool sent,) = address(this).call{value : msg.value}(\"\");\r\n        require(sent, \"Transaction Failed\");\r\n    \r\n        p.state = policyState.Active;   \r\n    }\r\n     \r\n    // View all policies\r\n    function viewAllPolicies() public view returns(policy[] memory) {\r\n        return policies;\r\n    }\r\n    \r\n    // View my policies\r\n    function viewMyPolicies(address user) public view returns(policy[] memory) {\r\n        \r\n        uint len = userPolicies[user].length;\r\n        policy[] memory res = new policy[](len);\r\n        \r\n        for(uint i = 0; i < len; i++) {\r\n            res[i] = policies[userPolicies[user][i]];\r\n        }\r\n        \r\n        return res;\r\n    }\r\n    \r\n    //Claiming policy\r\n    function claimPolicy(uint policyId) public {\r\n        require(policyId < policies.length, \"Policy doesn't exist\");\r\n        require(msg.sender == policies[policyId].user, \"User Not Authorized\");\r\n        \r\n        require(policies[policyId].state == policyState.Active, \"Policy Not Activated\");\r\n\r\n        if(block.timestamp > policies[policyId].endTime)\r\n        {\r\n            policies[policyId].state = policyState.TimedOut;\r\n            revert(\"Policy's Period has Ended.\");\r\n        }\r\n    \r\n        // string memory location = policies[policyId].location;\r\n\r\n        // DateTime dt = DateTime(addressGetTime);\r\n        // uint16 year = dt.getYear(timestamp);\r\n        // string memory y = uint2str(year);\r\n        // uint8 month = dt.getMonth(timestamp);\r\n        // string memory m = uint2str(month);\r\n        // uint8 day = dt.getDay(timestamp);\r\n        // string memory d = uint2str(day);\r\n\r\n        // string memory date = y.toSlice().concat(\"-\".toSlice());\r\n        // date = date.toSlice().concat(m.toSlice());\r\n        // date = date.toSlice().concat(\"-\".toSlice());\r\n        // date = date.toSlice().concat(d.toSlice());\r\n\r\n        //claimPolicyId = policyId;\r\n        //makeRequest(location, date);\r\n        (bool sent,) = policies[policyId].user.call{value : policies[policyId].coverageAmount}(\"\");\r\n        require(sent, \"Transaction Failed\");\r\n        \r\n        policies[policyId].state = policyState.PaidOut;\r\n    }\r\n    \r\n    // function makeRequest(string memory _location, string memory _date) public returns (bytes32 requestId)\r\n    // {\r\n    //     Chainlink.Request memory req = buildChainlinkRequest(jobId, address(this), this.fulfill.selector);\r\n    //     req.add(\"path\", \"main\");\r\n    //     req.add(\"path\", \"humidity\");\r\n        \r\n    //     requestId = sendChainlinkRequestTo(oracleId, req, fee);\r\n    // }\r\n    \r\n    // function fulfill(bytes32 _requestId, uint256 _result)\r\n    // public\r\n    // recordChainlinkFulfillment(_requestId)\r\n    // {\r\n    //     resultReceived = true;\r\n    //     result = _result;\r\n        // uint payoutAmount;\r\n\r\n        // if(policies[claimPolicyId].forFlood)\r\n        // {\r\n        //     if(_result < floodBaseMin)\r\n        //         revert(\"There is No Flood\");\r\n\r\n        //     if(_result > floodBaseMax)\r\n        //     {\r\n        //         payoutAmount = uint(policies[claimPolicyId].coverageAmount * floodMaxPayout/100);\r\n        //         policies[claimPolicyId].user.transfer(payoutAmount);\r\n        //         policies[claimPolicyId].state = policyState.PaidOut;\r\n        //     }\r\n        //     else\r\n        //     {\r\n        //         payoutAmount = uint(policies[claimPolicyId].coverageAmount * floodBasePayout/100);\r\n        //         policies[claimPolicyId].user.transfer(payoutAmount);\r\n        //         policies[claimPolicyId].state = policyState.PaidOut;\r\n        //     }\r\n        // }\r\n        // else\r\n        // {\r\n        //     if(_result > droughtBaseMax)\r\n        //         revert(\"There is No Drought\");\r\n\r\n        //     if(_result < droughtBaseMin)\r\n        //     {\r\n        //         payoutAmount = uint(policies[claimPolicyId].coverageAmount * droughtMaxPayout/100);\r\n        //         policies[claimPolicyId].user.transfer(payoutAmount);\r\n        //         policies[claimPolicyId].state = policyState.PaidOut;\r\n        //     }\r\n        //     else\r\n        //     {\r\n        //         payoutAmount = uint(policies[claimPolicyId].coverageAmount * droughtBasePayout/100);\r\n        //         policies[claimPolicyId].user.transfer(payoutAmount);\r\n        //         policies[claimPolicyId].state = policyState.PaidOut;\r\n        //     }\r\n        // }\r\n\r\n        // resetResult();\r\n    // }\r\n    \r\n    \r\n    // function uint2str(uint v) pure internal returns (string memory str) {\r\n    //     uint maxlength = 100;\r\n    //     bytes memory reversed = new bytes(maxlength);\r\n    //     uint i = 0;\r\n    //     while (v != 0) {\r\n    //         uint remainder = v % 10;\r\n    //         v = v / 10;\r\n    //         reversed[i++] = bytes1(uint8(48 + remainder));\r\n    //     }\r\n    //     bytes memory s = new bytes(i);\r\n    //     for (uint j = 0; j < i; j++) {\r\n    //         s[j] = reversed[i - 1 - j];\r\n    //     }\r\n    //     str = string(s);\r\n    // }\r\n    \r\n    \r\n}",
  "sourcePath": "F:\\Projects\\Decentralized_crop_insurance\\contracts\\Policy.sol",
  "compiler": {
    "name": "solc",
    "version": "0.8.4+commit.c7e474f2.Emscripten.clang"
  },
  "schemaVersion": "3.4.3",
  "updatedAt": "2021-10-10T07:35:57.639Z",
  "networkType": "ethereum",
  "devdoc": {
    "kind": "dev",
    "methods": {},
    "version": 1
  },
  "userdoc": {
    "kind": "user",
    "methods": {},
    "version": 1
  }
}